:100000000C9472000C947E000C947E000C947E0084
:100010000C947E000C947E000C947E000C947E0068
:100020000C947E000C947E000C947E000C947E0058
:100030000C947E000C947E000C947E000C947E0048
:100040000C947E000C947E000C947E000C947E0038
:100050000C947E000C947E000C947E000C947E0028
:100060000C947E000C947E000C947E000C947E0018
:100070000C947E000C947E000C947E000C947E0008
:100080000C947E000C947E000C947E000C947E00F8
:100090000C947E000C947E000C947E000C947E00E8
:1000A0000C947E000C947E000C947E000C947E00D8
:1000B0000C947E000C947E000C947E000C947E00C8
:1000C0000C947E000C947E000C947E000C947E00B8
:1000D0000C947E000C947E000C947E000C947E00A8
:1000E0000C947E0011241FBECFEFD1E2DEBFCDBF46
:1000F00000E00CBF0E943A010C9457010C940000E0
:10010000CF93DF931F921F92CDB7DEB79A83898377
:1001100084EC90E029813A81FC013183208382ECD8
:1001200090E026E0FC01208381EC90E021EC30E0BF
:10013000F90120812861FC0120838CE790E02CE705
:1001400030E0F90120812064FC0120838AE790E0FF
:100150002AE730E0F9012081FC01208300000F90A4
:100160000F90DF91CF910895CF93DF93CDB7DEB796
:100170008CE790E02CE730E0F90120812064FC015D
:1001800020838AE790E02AE730E0F90120812768A0
:10019000FC0120830000DF91CF910895CF93DF937E
:1001A000CDB7DEB78AE790E02AE730E0F901208199
:1001B0002064FC0120838AE790E0FC018081882F85
:1001C00090E08074992721E0892B09F420E0222314
:1001D00009F0F1CF88E790E0FC0180819181DF9107
:1001E000CF910895CF93DF93CDB7DEB780EC90E049
:1001F000FC0180818095881F8827881F882309F04B
:10020000F5CF86EC90E0FC018081DF91CF910895DD
:10021000CF93DF931F921F92CDB7DEB79A83898366
:1002200080EC90E0FC018081882F90E0807299271B
:1002300021E0892B09F020E0222309F0F1CF86ECA0
:1002400090E02981FC01208300000F900F90DF9146
:10025000CF910895CF93DF93CDB7DEB78CE290E0D6
:10026000FC01808180E590E00E9408010000DF91A0
:10027000CF910895CF93DF931F921F92CDB7DEB732
:1002800087E690E00E9480000E94B4000E94F20085
:10029000882F90E09A8389830E942A010E94CE00D1
:1002A0009A83898389819A810E940801EFCFF8940B
:0202B000FFCF7E
:00000001FF
