:100000000C949F000C94AB000C94AB000C94AB00D0
:100010000C94AB000C94AB000C94AB000C94AB00B4
:100020000C94AB000C94AB000C94AB000C94AB00A4
:100030000C94AB000C94AB000C94AB000C94AB0094
:100040000C94AB000C94AB000C94AB000C94AB0084
:100050000C94AB000C94AB000C94AB000C94AB0074
:100060000C94AB000C94AB000C94AB000C94AB0064
:100070000C94AB000C94AB000C94AB000C94AB0054
:100080000C94AB000C94AB000C94AB000C94AB0044
:100090000C94AB000C94AB000C94AB000C94AB0034
:1000A0000C94AB000C94AB000C94AB000C94AB0024
:1000B0000C94AB000C94AB000C94AB000C94AB0014
:1000C0000C94AB000C94AB000C94AB000C94AB0004
:1000D0000C94AB000C94AB000C94AB000C94AB00F4
:1000E0000C94AB0008000000BE922449123EABAA5B
:1000F000AA2ABECDCCCC4C3E00000080BEABAAAA42
:10010000AA3E00000000BF000000803F0000000089
:1001100000084178D3BB4387D1133D190E3CC3BDC2
:100120004282AD2B3E68EC8276BED98FE1A93E4C6F
:1001300080EFFFBE01C4FF7F3F00000000001124DC
:100140001FBECFEFD1E2DEBFCDBF00E00CBF0E94EB
:10015000FF000C9437040C940000279A6C980895C3
:100160009093C5008093C40086E08093C200E1ECC8
:10017000F0E08081886180830895ECE7F0E0808181
:100180008064808380818F7D8083EAE7F0E08081D6
:10019000876080838081806880830895CF92DF921A
:1001A000EF92FF92EAE7F0E08081806480838081B3
:1001B00086FDFDCF6091780070E080E090E00E94C5
:1001C00027026B017C016091790070E0762F662731
:1001D000072E000C880B990B0E942902A70196019B
:1001E0000E948C01FF90EF90DF90CF900895E0EC9B
:1001F000F0E0908195FFFDCF8093C6000895CF93E6
:10020000DF93CDB7DEB760970FB6F894DEBF0FBEB1
:10021000CDBF0E94AD0087E690E00E94B0000E9432
:10022000BD000F2EF0EF4F2EF8E15F2EFCE96F2E90
:10023000712CF02D0F2EF0EB8F2E912CA12CB12CC8
:10024000F02DCE0101966C012F9A0E94CE000E94E3
:10025000F8019B0140E050E0C301B2010E94C903D4
:100260002051374241095109A0E1B7E20E94F7034A
:10027000A50194010E94A703CA01B9010E942702A7
:100280000E94BD022F9820E030E048EC52E40E942A
:1002900005030E94F8019B0140E050E060EE78EB1E
:1002A0008AE592E00E94C903235B3A46369527957A
:1002B00036952795ABE7B4E10E94E8034AE0B60122
:1002C000969587950E940204F60101900020E9F7B7
:1002D00031977F01EC18FD081E141F0474F48E0181
:1002E0000F5F1F4FE00EF11EF80181918F0190E02A
:1002F0000E94F7000E151F05B9F78AE090E00E94F2
:10030000F700FFEF23ED80E3F15020408040E1F75C
:1003100000C0000099CF5058BB27AA270E94A30114
:100320000C947B020E946D0238F00E94740220F04F
:1003300039F49F3F19F426F40C946A020EF4E09508
:10034000E7FB0C946402E92F0E948C0258F3BA1761
:10035000620773078407950720F079F4A6F50C94DB
:10036000AE020EF4E0950B2EBA2FA02D0B01B901B1
:1003700090010C01CA01A0011124FF27591B99F01B
:10038000593F50F4503E68F11A16F040A22F232F27
:10039000342F4427585FF3CF469537952795A79577
:1003A000F0405395C9F77EF41F16BA0B620B730B1E
:1003B000840BBAF09150A1F0FF0FBB1F661F771F8F
:1003C000881FC2F70EC0BA0F621F731F841F48F444
:1003D000879577956795B795F7959E3F08F0B0CFCD
:1003E0009395880F08F09927EE0F979587950895B4
:1003F0000E94940288F09F5798F0B92F9927B7511F
:10040000B0F0E1F0660F771F881F991F1AF0BA95B8
:10041000C9F714C0B13091F00E94AE02B1E0089566
:100420000C94AE02672F782F8827B85F39F0B93F58
:10043000CCF3869577956795B395D9F73EF490956B
:100440008095709561957F4F8F4F9F4F0895E894E9
:1004500009C097FB3EF490958095709561957F4F0C
:100460008F4F9F4F9923A9F0F92F96E9BB279395BA
:10047000F695879577956795B795F111F8CFFAF4CA
:10048000BB0F11F460FF1BC06F5F7F4F8F4F9F4FFB
:1004900016C0882311F096E911C0772321F09EE859
:1004A000872F762F05C0662371F096E8862F70E0BF
:1004B00060E02AF09A95660F771F881FDAF7880F99
:1004C0009695879597F9089597F99F6780E870E06A
:1004D00060E008959FEF80EC089500240A941616BA
:1004E000170618060906089500240A941216130622
:1004F000140605060895092E0394000C11F48823B0
:1005000052F0BB0F40F4BF2B11F460FF04C06F5FCB
:100510007F4F8F4F9F4F089557FD9058440F551FA1
:1005200059F05F3F71F04795880F97FB991F61F075
:100530009F3F79F087950895121613061406551FEC
:10054000F2CF4695F1DF08C0161617061806991F58
:10055000F1CF86957105610508940895E894BB274D
:1005600066277727CB0197F9089516F00C9472034C
:100570000C946A0268940C9464020E949402A8F39A
:100580009923C1F3AEF3DF93CF931F930F93FF92A1
:10059000C92FDD2788232AF02197660F771F881F30
:1005A000DAF720E030E040E85FEB9FE3883920F0A5
:1005B000803E38F021968F770E948C01E4EEF0E0C7
:1005C00004C00E948C01E1E1F1E00E9480038B01F4
:1005D000BE01EC01FB2E6F5771097595771F880BD3
:1005E000990B0E94290228E132E741E35FE30E9470
:1005F0001803AF2D9801AE01FF900F911F91CF917D
:10060000DF910E94A3010C947B020E9418030C94BA
:100610007B020E946D0238F00E94740220F0952344
:1006200011F00C9464020C946A0211240C94AF0231
:100630000E948C0270F3959FC1F3950F50E0551FF7
:10064000629FF001729FBB27F00DB11D639FAA2727
:10065000F00DB11DAA1F649F6627B00DA11D661F76
:10066000829F2227B00DA11D621F739FB00DA11D97
:10067000621F839FA00D611D221F749F3327A00D51
:10068000611D231F849F600D211D822F762F6A2FED
:1006900011249F5750409AF0F1F088234AF0EE0F52
:1006A000FF1FBB1F661F771F881F91505040A9F77F
:1006B0009E3F510580F00C9464020C94AF025F3FA2
:1006C000E4F3983ED4F3869577956795B795F795BB
:1006D000E7959F5FC1F7FE2B880F911D9695879533
:1006E00097F908959F3F31F0915020F487957795C1
:1006F0006795B795880F911D9695879597F90895F9
:10070000DF93CF931F930F93FF92EF92DF927B01C2
:100710008C01689406C0DA2EEF010E941803FE01D6
:10072000E894A5912591359145915591A6F3EF0156
:100730000E94A301FE019701A801DA9469F7DF90F6
:10074000EF90FF900F911F91CF91DF910895A1E25B
:100750001A2EAA1BBB1BFD010DC0AA1FBB1FEE1F3B
:10076000FF1FA217B307E407F50720F0A21BB30B86
:10077000E40BF50B661F771F881F991F1A9469F702
:1007800060957095809590959B01AC01BD01CF015E
:100790000895052E97FB1EF400940E94E00357FD78
:1007A00007D00E94A70307FC03D04EF40C94E0038B
:1007B00050954095309521953F4F4F4F5F4F08958D
:1007C00090958095709561957F4F8F4F9F4F0895BD
:1007D000A29FB001B39FC001A39F700D811D112482
:1007E000911DB29F700D811D1124911D08950E94CD
:1007F000E803A59F900DB49F900DA49F800D911DBF
:1008000011240895BB274A3031F4992322F4BDE224
:10081000909581959F4F0C940E04BB27FB015527A3
:10082000AA27880F991FAA1FA41710F0A41B83954D
:100830005051B9F7A05DAA3308F0A95DA1930097C4
:1008400079F7B111B1931192CB010C942704DC011B
:10085000FC01672F71917723E1F7329704C07C91F7
:100860006D9370836291AE17BF07C8F30895F89433
:02087000FFCFB8
:00000001FF
